:0200000280007C
:1000000000890720193C0800153C0800153C080031
:10001000153C0800153C0800153C080000000000D5
:10002000000000000000000000000000B1440800D3
:10003000153C08000000000061450800C9400800A8
:10004000153C0800153C0800153C0800153C08004C
:10005000153C0800153C0800153C0800153C08003C
:10006000153C0800153C0800153C0800A1390800A3
:10007000B5390800C9390800DD390800F139080030
:10008000053A0800153C0800153C0800153C08001E
:10009000153C0800153C0800153C0800153C0800FC
:1000A000153C0800153C0800153C0800153C0800EC
:1000B000153C0800153C0800153C0800153C0800DC
:1000C000153C0800153C0800153C0800153C0800CC
:1000D000153C0800153C0800153C0800153C0800BC
:1000E000153C0800153C080049C20800153C0800F2
:1000F000153C080008B50548054B1B1A062B00D80F
:1001000008BD044B002BFBD09847F9E7BC130B004C
:10011000BF130B000000000008B50748074B1B1A6F
:100120009B1003EBD373591000D108BD044A002A79
:10013000FBD09047F9E700BFBC130B00BC130B00CA
:100140000000000010B5064C237843B9FFF7D2FF3A
:10015000044B13B10448AFF300800123237010BD9A
:10016000880B072000000000BC130B0008B5084BEB
:100170001BB108480849AFF300800848036813B171
:10018000074B03B19847BDE80840FFF7C5BF00BF64
:1001900000000000BC130B008C0B0720BC130B00ED
:1001A000000000002DE9F84307460C46006801896D
:1001B0008C4221D21BB3117821B3561C04EB0309E6
:1001C0001546DFF85880A1B2C0472A78824206D08F
:1001D00090422CBF4FF0FF300120BDE8F88301347E
:1001E00038680389A34210D94C4511D035460136F1
:1001F0002B78002BE7D10EE00020BDE8F88300202B
:10020000BDE8F8830020BDE8F8830020BDE8F8834E
:100210000020BDE8F8830020BDE8F8835184080081
:100220002DE9F04383B006460C46006803899942E5
:1002300019D24FF000081D4F4FF00109A5B2294611
:10024000B84722280AD198F0010807D1E4B1691E05
:10025000306889B2B8475C2814D1C8460134306888
:100260000389A342EAD8124B1B68DC68114B9847FC
:100270000368009320461049104A2D23104CA047D4
:1002800000200FE020460DE0094B1B68DC68094B9D
:1002900098470368009320460A49084A2723084CD8
:1002A000A047002003B0BDE8F08300BF51840800E0
:1002B000C802072075C70800AC380900703809006B
:1002C000C7C708005C3909002DE9F04182B0064635
:1002D0000C4600680389994211D2DFF86C80144FF4
:1002E00004E0013430680389A34208D9D8F80050EB
:1002F000A1B2B8472844437813F0080FF1D174B97C
:100300000C4B1B68DC680C4B984703680093204635
:100310000A490B4AA5230B4CA047002005E033688F
:100320001889A0428CBF2046002002B0BDE8F081B1
:1003300051840800C802072075C708005C3909000D
:1003400088380900C7C70800C002072070B582B00E
:1003500005461646124B98470446E0B12868A1B2FC
:10036000104B9847B04217D1B4F1FF3F0ED10E4B5E
:100370001B68DC680D4B98470368009320460C49C6
:100380000C4AB3230C4CA047002006E02846611C11
:10039000034B984701E000E0204602B070BD00BF6B
:1003A000C902080051840800C802072075C7080068
:1003B0005C3909009C380900C7C708002DE9F041E5
:1003C00082B005460E46006889B2894B98472228BC
:1003D00004D128463146874B984740E17B2851D1CC
:1003E000286803899E423CD20027814CDFF80482B2
:1003F000B1B2A047222814D128463146C04706464C
:10040000002829D17C4B1B68DC687C4B984703682B
:10041000009320467A497B4A3B237B4CA04700202F
:100420001DE17B2802D10137FFB215E07D2813D1F1
:10043000013F17F0FF070FD116BB6F4B1B68DC683D
:100440006E4B984703680093204670496D4A4523D8
:100450006D4CA047002002E10136286803899E42C6
:10046000C6D3654B1B68DC68644B984703680093F0
:1004700020466749634A4C23634CA0470020EEE0C6
:100480003046ECE05B2840D1286803899E422BD29D
:100490000027574CDFF85C81B1B2A047222813D166
:1004A00028463146C0470646C8B9534B1B68DC682E
:1004B000524B98470368009320465449554A5923A4
:1004C000514CA0470020CAE05B2802D10137FFB29F
:1004D00005E05D2803D1013F17F0FF0713D0013677
:1004E000286803899E42D7D3434B1B68DC68434B83
:1004F00098470368009320464749464A6823424C80
:10050000A0470020ABE03046A9E0444B1B68034401
:100510005B7813F0040F03D12D2801D02B2840D194
:100520003446286803899E422CDA314F3B4EA1B2F3
:10053000B847336803445B7813F0040F1DD100F013
:10054000DF03452B19D0A0F12D03DBB2012B14D909
:100550002B2812D0012C0ED1274B1B68DC68274BAF
:10056000984703680093204628492D4A7323264C58
:10057000A047002073E0601E71E001342868038901
:100580009C42D4DB1C4B1B68DC681C4B98470368FF
:10059000009320462349224A77231B4CA047002082
:1005A0005DE028463146204A0423204CA04728B16C
:1005B000284631461E4A0423A04708B903363FE0C7
:1005C000284631461B4A0523184CA04708B9043673
:1005D00036E0094B1B68DC68084B984703680093BA
:1005E00020461549154A8C23074CA047002635E0C4
:1005F0005184080021020800C802072075C70800BE
:10060000FC39090048410900C7C708005C390900E6
:100610009C3A0900604109004C3B0900C0020720D8
:100620008C410900F83B0900AC3C0900A501080019
:10063000B43C0900BC3C0900C43C09004038090036
:1006400066B9084B1B68DC68074B98470368009342
:1006500020460649064A8F23064CA047304602B082
:10066000BDE8F081C802072075C708005C390900A1
:1006700040380900C7C708002DE9F04780468A4680
:1006800016461F46089D1B4829461A461A4CA04785
:100690001A484146A0473C463D44AF4223D2306809
:1006A00003899F421FDADFF86480DFF86490124FFD
:1006B000A1B2C04701460A2806D00D2801D048B98A
:1006C00005E00F48B84707E04846B84704E00D4842
:1006D000B84701E00C48B8470134AC4203D2306857
:1006E0000389A342E4DC05485146034B9847BDE823
:1006F000F08700BF743D090039C80800843D090037
:10070000883D0900903D0900943D0900518408008E
:100710008C3D09002DE9F04F85B004460E4602924B
:100720000393DFF82891DFF828A1DFF828B16AE009
:1007300020462C22C847054678B93B4B1B68DC682D
:100740003A4B98470368009320463949394AC723F2
:10075000394CA0474FF0FF3062E02068A9B2D04783
:100760007D2859D020462946D847804678B92E4B57
:100770001B68DC682D4B98470368009320462F497F
:100780002C4AD1232C4CA0474FF0FF3048E02046A4
:1007900008F101013A22C847074678B9224B1B6885
:1007A000DC68224B98470368009320462449214A7D
:1007B000D823214CA0474FF0FF3031E02046394686
:1007C000204B9847064678B9174B1B68DC68174BD7
:1007D00098470368009320461B49164ADE23164CAF
:1007E000A0474FF0FF301BE0C5F10102C7F1010344
:1007F00003440093039B01932046294642443B4611
:10080000029DA84750B923681B899E4207D2711CDC
:100810008B428DD8002003E0002001E000E00020A2
:1008200005B0BDE8F08F00BFC802072075C70800FB
:10083000983D090078410900C7C70800303E09000B
:10084000CC3E0900BD030800643F09004D030800C9
:1008500051840800210208002DE9F04F87B00446BA
:100860000E46934605930027DFF8C490DFF8C4A036
:1008700040E020462C22C847054678B9254B1B6826
:10088000DC68254B98470368009320462349244A97
:10089000F723244CA0474FF0FF3038E02068A9B27E
:1008A000D0475D282FD0204629461F4A904706464C
:1008B00098B9184B1B68DC68174B9847036800937E
:1008C00001950023029320461849154A4FF480737E
:1008D000144CA0474FF0FF3019E007F10108C5F1B3
:1008E0000103059A0092204639462A463344D847E8
:1008F00058B9474623681B899E4207D2711C8B4218
:10090000B7D8002003E0002001E000E0002007B09D
:10091000BDE8F08FC802072075C708000040090035
:100920005C380900C7C70800BD03080094400900EF
:100930004D030800518408002DE9F04105460C469E
:1009400016469846006889B2124FB8477B280AD1EC
:10095000B8F1000F12D0284621464246069B0E4CA5
:10096000A047BDE8F0815B280CD17EB12846214626
:100970003246069B094CA047BDE8F0814FF0FF309E
:10098000BDE8F0814FF0FF30BDE8F0814FF0FF305F
:10099000BDE8F081518408001507080059080800D7
:1009A0000EB430B5A4B0054627AB53F8042B03931F
:1009B00004A87F21114CA0470246B0F1FF3F0FD1A0
:1009C0000F4B1B68DC680F4B984703680093204669
:1009D0000D490E4A13230E4CA0474FF0FF3008E09C
:1009E000284604A901230B4CA047003018BF012062
:1009F000404224B0BDE8304003B07047CBF8080057
:100A0000C802072075C70800B4410900A4410900C5
:100A1000C7C708002D56080030B593B00446826A57
:100A2000154B002A08BF1A46C368009202A840214D
:100A3000124A134DA8470246606802A90123114DCE
:100A4000A84790B923692BB160680F491822002389
:100A5000A84768B960680D4902220023094CA047E5
:100A6000003018BF0120404204E04FF0FF3001E0A9
:100A70004FF0FF3013B030BD2C4209003042090066
:100A800045CE08002D5608004442090040420900A6
:100A900010B50B4640680249024CA047C01710BD74
:100AA00060420900A109080070B582B006460D46F3
:100AB0001446164B984778B1154B1B68DC68154BEC
:100AC00098470368009320461349144A3723144C6F
:100AD000A0474FF0FF3315E0304629462246114B20
:100AE0009847034670B10A4B1B68DC68094B98476E
:100AF0000368009320460C49084A3C23084CA04751
:100B00004FF0FF33184602B070BD00BF190A08004D
:100B1000C802072075C70800744209006C43090029
:100B2000C7C70800910A0800F04209002DE9F0410A
:100B30008AB00546174698460068164B98474FF608
:100B4000FF7398421ED007440024134EE119286811
:100B500089B2B04702A960540D2808D10AAB1C44E1
:100B6000002304F8203CB8F1010F02D00DE001345D
:100B7000ECE702A801A90022084B9847109B1860D7
:100B8000002004E04FF0FF3001E04FF0FF300AB0EA
:100B9000BDE8F081558508005184080029D008007F
:100BA000F0B585B00546144CA0470768A047002261
:100BB0000260281D03A9114B98470646A047036809
:100BC000A3B1A04701680E482A460E4B98470E4B2A
:100BD0001B68DD68A0470368009328460B490C4A50
:100BE00043230C4CA0474FF0FF3003E0024B9847E3
:100BF0000760304605B0F0BD75C7080029D0080071
:100C000054010B0039C80800C802072064010B001A
:100C100048070B00C7C708002DE9F04385B081469F
:100C200017460E460024DFF87C8002E02546013698
:100C30002C464846B1B2C0470CB92F28F6D0651CE7
:100C4000385520281CD00A2804D00D2802D008B11D
:100C50000F2DECDD7B19002203F8012C0C4B1B68D7
:100C6000DC680C4B98470368009301970295204677
:100C700009490A4A58230A4CA0474FF0FF3003E0C5
:100C80003D44002005F8010C05B0BDE8F08300BF2D
:100C9000C802072075C70800D8010B0058070B00D1
:100CA000C7C7080051840800F0B589B005460C4656
:100CB000FF230B8000238B61006880490322804E54
:100CC000B0474FF6FF73984234D001232380286841
:100CD00004217C4EB047074628680521B0472F2FD6
:100CE00000F07481202800F07181774B1B68DD686B
:100CF000764B9847036800934FF4CA730193744B83
:100D0000029328467349744A6B23744DA847E368DD
:100D100013B1C82B40F05A814FF4CA73E3606C4B97
:100D2000A362FF2323806E4BE3616B2363626A4BF4
:100D300023624BE128686B4904220023604EB047D0
:100D40004FF6FF73984200F01E810223238028682B
:100D5000052104AA644B9847B0F1FF3F30D15A4BAC
:100D60001B68DD68594B9847036800934FF4C873BC
:100D700001935E4B029328465649574A7523574DB7
:100D8000A847E3680BB1C82B0CD14FF4C873E360DC
:100D9000564BA362FF232380514BE36175236362AB
:100DA0004D4B2362484B1B68DC68484B98470368EF
:100DB000009320464E49484A7623484CA04705E117
:100DC00004A84C4904224C4B984720B33E4B1B6867
:100DD000DD683E4B98470368009340F2F51301939A
:100DE000464B029328463B493B4A7B233B4DA84751
:100DF000E36813B1C82B40F0E98040F2F513E360DB
:100E00003E4BA362FF232380354BE3617B23636268
:100E1000314B2362DAE004A8394B9847B0F1FF3F29
:100E200024D1294B1B68DD68284B98470368009341
:100E30004FF4C8730193334B029328462549264A41
:100E40008323264DA847E36813B1C82B40F0BE802A
:100E50004FF4C873E3602B4BA362FF232380204B26
:100E6000E361832363621C4B2362AFE004284DD906
:100E7000154B1B68DD68154B9847036800934FF4CA
:100E8000C8730193204B029328461249124A8823C3
:100E9000124DA847E36813B1C82B40F097804FF478
:100EA000C873E360184BA362FF2323800C4BE361FC
:100EB00088236362084B236288E000BF60020B0056
:100EC000F584080051840800C802072075C708008F
:100ED000D8020B0064020B0068070B00C7C70800AC
:100EE000E8020B0044030B00190C08004C030B0034
:100EF00058030B00D4030B00D3CE0800DC030B0017
:100F0000A10B0800F4030B000C040B0000EB8000A5
:100F10002F4B03EB8000A06004F1180600962846D2
:100F20002C49102201232C4FB84700284ED00096A0
:100F300028462A4910220123B847002846D0284BCA
:100F40001B68DD68274B9847036800934FF4C8730C
:100F50000193254B029328462449254A9123254D88
:100F6000A847E3680BB1C82B30D14FF4C873E360D6
:100F70001D4BA362FF2323801F4BE3619123636218
:100F80001B4B236222E0164B1B68DD68154B98470C
:100F90000368009340F2F5130193184B029328461F
:100FA0001249134A9623134DA847E3680BB1C82B87
:100FB0000CD140F2F513E360104BA362FF232380B2
:100FC0000D4BE36196236362094B236209B0F0BDC8
:100FD000440207202C040B002D0B08003C040B00DE
:100FE000C802072075C708004C040B0064020B0000
:100FF00068070B00C7C70800E8020B00DC030B0002
:101000002DE9F04385B0064689460024154DDFF8EA
:101010007480154F304603A9A84778B1134B1B685D
:10102000DC68134B98470368009320461149124A25
:10103000A023124CA0474FF0FF300FE01CB1204618
:101040000399C04700E0039C206839460C4B984741
:101050004FF6FF739842DDD0C9F8004005B0BDE8F7
:10106000F08300BF8D550800EC040B00C802072078
:1010700075C7080070040B007C430900C7C708004F
:1010800055850800E96208002DE9F04385B0064661
:10109000894617460024134DDFF86080304603A9C7
:1010A000A84778B1104B1B68DC68104B9847036861
:1010B000009320460E490F4AB8230F4CA0474FF02B
:1010C000FF300CE01CB120460399C04700E0039CB0
:1010D00023681B89BB42E1DBC9F80040002005B052
:1010E000BDE8F0838D550800C802072075C70800C9
:1010F00070040B0090430900C7C70800E9620800AC
:1011000030B585B00546254B98470446B0F1FF3F02
:101110000DD1234B1B68DD68224B98470368009371
:1011200028462149214AD023214DA84732E068684A
:101130002049214A0023214CA047B0F1FF3F25D18F
:10114000174B1B68DC68174B9847036800934FF4F4
:10115000FA7301931A4B029320461A49134AD42377
:10116000134CA047EB680BB1C82B11D14FF4FA73A5
:10117000EB60134BAB62FF232B80134BEB61D4234B
:101180006B620A4B2B624FF0FF3403E0002401E056
:101190004FF0FF34204605B030BD00BF190A0800EB
:1011A000C802072075C70800F4040B0044010B00B7
:1011B000C7C70800A44309009DBD01002D560800C3
:1011C00070050B0064020B00E8020B0008B5014B30
:1011D000984708BD91170800F0B593B00546002464
:1011E00005948748874B98470895C8230A9311941C
:1011F0000D94284606A9844B98470C90B0F1FF3F08
:1012000024D1824B1B68DC68814B984703680093AC
:101210004FF4FA7301937F4B029320467E497F4A35
:10122000F0237F4CA0470A9B0BB1C82B1AD14FF477
:10123000FA730A93774B1193FF23ADF81C30794B67
:101240000E93F0231093754B0F930BE00430009036
:1012500075487649069A0023754CA047069807A959
:10126000744B9847744D674C744EBDF81C30022B7C
:1012700006D0FF2B00F0A680012B40F0BC8089E057
:101280002846A04700230B930D9B002B00F0B38052
:101290000C9F04373046A047069A13681B890093B9
:1012A000674862490023DFF888C1E0470D9A3A4455
:1012B000069B1B681B899A4232D9089805A9D21A45
:1012C000604B9847B0F1FF3F26D1504B1B68DF6859
:1012D0004F4B9847036800934FF4FA7301935A4BAE
:1012E000029338464C494D4A4FF483734C4FB847EC
:1012F0000A9B0BB1C82BB8D14FF4FA730A93524B27
:101300001193FF23ADF81C30464B0E934FF48373BB
:101310001093424B0F93A8E7069805994B4B9847BB
:101320000D9B00934A484149069A0C9B0433DFF811
:1013300000C1E04707A806993A46464B9847B0F1E6
:10134000FF3F58D1314B1B68DF68314B984703682A
:10135000009340F2911301933F4B029338462E497C
:101360002E4A40F211132E4FB8470A9B13B1C82BD7
:101370007FF47BAF40F291130A93374B1193FF2315
:10138000ADF81C30274B0E9340F211131093234BF2
:101390000F936AE73148A04701230B9307A8304B0E
:1013A0009847002827D0194B1B68DF68184B9847CF
:1013B0000368009338462B49184A4FF48E73184F30
:1013C000B84752E728480F4B984700230B9307A8CC
:1013D000264B9847B0F1FF3F0DD10C4B1B68DC68E2
:1013E0000B4B984703680093204621490B4A40F273
:1013F00025130B4CA04706981E4B984713B0F0BD21
:1014000080050B0039C8080001100800C802072039
:1014100075C70800A8050B0064020B0038070B0015
:10142000C7C70800E8020B00BC050B00C8050B008D
:1014300079060800A90C0800CC050B00F8050B0084
:1014400020060B00891008002C060B00E96208003A
:1014500040060B00912B08004C060B0064060B00A5
:101460000111080090060B000C070B00190A080078
:10147000F4040B00C162080041B1032804D8044AF7
:1014800052F820200A60704700220A60704700BFAF
:101490003002072003289CBF014B43F820107047FF
:1014A0003002072000B583B002460023CDE90023B7
:1014B00008461021024A034B984703B05DF804FB2D
:1014C0007C070B0045CE08002DE9F04182B00546AF
:1014D0000E46104CA0470768A0470023036028462B
:1014E00001A90A220C4B98478046A047046844B9DA
:1014F000019BAB4208D0074B98470760C6F80080B5
:1015000004E04FF0FF3401E04FF0FF34204602B01A
:10151000BDE8F08175C7080029D008002DE9F04129
:1015200082B005460E46104CA0470768A04700232E
:101530000360284601A90A220C4B98478046A04721
:10154000046844B9019BAB4208D0074B9847076039
:10155000C6F8008004E04FF0FF3401E04FF0FF34A4
:10156000204602B0BDE8F08175C7080029D0080008
:1015700008B5054B1B681BB11B6A0BB1984708BD2A
:10158000024B984708BD00BF40020720A514080081
:1015900008B5054B1B681BB15B6A0BB1984708BDCA
:1015A000024B984708BD00BF40020720C91408003D
:1015B00008B5054B1B681BB19B6A0BB1984708BD6A
:1015C000024B984708BD00BF400207201D150800C8
:1015D0002DE9F84F884691461C460A9E014610B1F7
:1015E0000F48104B9847B4B1A24600252C460D4F2A
:1015F000DFF834B007E0B4FBF6F306FB134313B98E
:101600000CB15846B847404659F82510B847013440
:1016100025465445EFD10448024B9847BDE8F88F62
:10162000843D090039C8080000100B002DE9F04185
:1016300082B084460E467F2824D8C0F180089045A9
:1016400028BF9046B8F1000F0BDD4FEA880E0F4F10
:1016500007EB8007002435593D5104347445FAD115
:1016600001E0002300E043460093094861464346F9
:10167000084CA047282300930748084932464346B0
:10168000074CA04702B0BDE8F08100BF3000072042
:1016900084070B0039C80800A0070B00AC070B003B
:1016A000D11508002DE9F04F85B080460E469246D0
:1016B00000EB020BC0F18009914528BF91467F28BD
:1016C00019D8B9F1000F0BDD4FEA8903114F07EB71
:1016D000800700243D59355104349C42FAD101E081
:1016E000002400E04C46142300930B480B4932467B
:1016F0004B460B4DA847009480230193CDF808B0CA
:101700000848414652464B46074CA04705B0BDE845
:10171000F08F00BF30000720B4070B00AC070B00B0
:10172000D1150800C0070B0039C8080008B5034BE5
:101730001B6813B15B6903B1984708BD40020720DD
:1017400008B5034B1B6813B11B6903B1984708BD6B
:101750004002072008B5034B1B6813B19B6903B116
:10176000984708BD4002072008B5034B1B6813B11A
:10177000DB6903B1984708BD4002072008B5034B59
:101780001B6813B15B6803B1984708BD400207208E
:1017900008B5054B1B681BB19B681BB1984708BD7A
:1017A000002008BD002008BD4002072008B5054BF9
:1017B0001B681BB11B681BB1984708BD002008BD02
:1017C000002008BD400207202DE9F04782B0044602
:1017D0000F4692461E460B9D2B68D3F80C804FEAAD
:1017E000C8091C4849461C4A1C4B9847CDF800A024
:1017F0001B481C4922463B461B4FB847B7B22068DE
:1018000039461A4B98475B2805D020683946174B54
:1018100098477B280CD12B6808F10102DA602B680D
:101820005A689B68009520463146114CA0470DE050
:1018300008484946084A094B98470A9B00930D48B7
:101840000D4922463346084CA047002002B0BDE8AF
:10185000F08700BF74080B00F0040B0039C80800C3
:1018600078080B0000100B0079060800518408006E
:101870003909080084080B0090080B002DE9F04F8F
:1018800083B004468B4617469A460C9D2B68D3F8C6
:101890000C804FEAC80919484946194A194EB04701
:1018A00019485946B047BEB220683146174B984791
:1018B0005B2805D020683146144B98477B280CD113
:1018C0002B6808F10102DA602B685A689B68009562
:1018D000204639460E4CA0470DE008484946084AC4
:1018E000084B9847CDF800A00A480B4922463B46D2
:1018F0000A4CA047002003B0BDE8F08F74080B002D
:10190000F0040B0039C8080094080B00518408004B
:1019100039090800A4080B0090080B00790608009C
:1019200010B582B005990C686268A46800911946E8
:101930002346054CA047B0F1FF3F14BF00206FF0D5
:10194000000002B010BD00BF390908002DE9F041C8
:101950008AB006461546109F41B1012940F09D808E
:10196000006803899A42C0F0D0805AE00068038979
:101970009A42C0F0C1800CE0611989B2C04705AB42
:1019800018550134102C04D03068028963199A422A
:10199000F2D800238DF8243005A804A9614B98479C
:1019A0000446B0F1FF3F2AD15F4B1B68DD685F4BF7
:1019B00098470368009340F2911301935C4B0293A4
:1019C00028465C495C4AE9235C4DA8477A68D3689D
:1019D00013B1C82B40F0A28040F29113D3607B6812
:1019E000534A9A627B68FF221A807B68544ADA6104
:1019F0007B68E9225A627B684F4A1A628EE0049B38
:101A0000504A1360002489E0611989B2C04705ABD0
:101A100018550134102C04D03068028963199A4299
:101A2000F2D800238DF8243005A804A93D4B98472F
:101A30000446B0F1FF3F29D13B4B1B68DD683B4BAF
:101A400098470368009340F291130193384B029337
:101A500028463849384AF623384DA8477A68D3686B
:101A60000BB1C82B5AD140F29113D3607B68304A36
:101A70009A627B68FF221A807B68314ADA617B6850
:101A8000F6225A627B682C4A1A6247E02D4B049A70
:101A90005A6001229A64002440E0234B1B68DC68F2
:101AA000224B98470368009340F291130193264B11
:101AB000029320461F49204AFE23204CA0477A6803
:101AC000D3680BB1C82B14D140F29113D3607B685B
:101AD0001D4A9A627B68FF221A807B68184ADA6185
:101AE0007B68FE225A627B68134A1A624FF0FF3409
:101AF00014E04FF0FF3411E091B2144B98478DF889
:101B000014000124DFF844803EE791B20F4B984760
:101B10008DF814000124DFF834807DE720460AB0F8
:101B2000BDE8F081B1150800C802072075C708009C
:101B300028090B00B0080B00CC0E0B00C7C708002B
:101B400040090B00A40B07209C090B0051840800DE
:101B5000F0B58BB00646154600295BD100680389B5
:101B60009A42C0F090800CE0611989B2B84705AB89
:101B700018550134102C04D03068028963199A4238
:101B8000F2D800238DF8243005A804A9434B9847C8
:101B90000446B0F1FF3F36D1414B1B68DD68414B35
:101BA00098470368009340F2911301933E4B0293D0
:101BB00028463E493E4A4E233E4DA847109A536858
:101BC000DA680AB1C82A16D140F29112DA60109A86
:101BD0005368354A9A62109A5368FF221A80109A05
:101BE0005368354ADA61109A53684E225A62109A45
:101BF00053682F4A1A62314900220B4643F8042BDE
:101C00004A605A6047E02D4B049A1A6001229A609C
:101C1000002440E0224B1B68DC68224B9847036895
:101C2000009340F291130193254B029320461F49E4
:101C30001F4A56231F4CA047109A5368DA680AB10E
:101C4000C82A16D140F29112DA60109A53681C4AE1
:101C50009A62109A5368FF221A80109A5368164AA3
:101C6000DA61109A536856225A62109A5368104AE1
:101C70001A62124900220B4643F8042B4A605A604C
:101C80004FF0FF3407E091B20E4B98478DF81400E7
:101C900001240C4F70E720460BB0F0BDB1150800D1
:101CA000C802072075C7080028090B00B0080B0000
:101CB000C00E0B00C7C7080040090B00F00B07203F
:101CC0009C090B00518408002DE9F0438BB00F46AE
:101CD000584B9B68002B2CD1574B1B68DC68574B2B
:101CE00098470368009340F291130193544B029379
:101CF00020465449544A6523544CA047FB680BB115
:101D0000C82B0CD140F29113FB604D4BBB62FF23FB
:101D10003B804F4BFB6165237B624B4B3B624549EC
:101D200000220B4643F8042B4A605A604FF0FF3301
:101D30007CE000240AAE46F8184DDFF80C914548C7
:101D400049466B22DFF82881C0473A4D2868314662
:101D5000414B9847414849466D22C0472B4643F8BE
:101D6000044B6C605C60049805A93D4B98470246A3
:101D7000B0F1FF3F25D1304B1B68DC682F4B9847F3
:101D8000036800934FF4FA730193364B0293204695
:101D90002C494A4672232D4CA047FB680BB1C82B37
:101DA0003FD14FF4FA73FB602E4BBB62FF233B80A5
:101DB000274BFB6172237B62234B3B624FF0FF3367
:101DC00034E000238DF82430384605A9264B984787
:101DD000034600282AD0184B1B68DC68174B98472D
:101DE000036800934FF4FA730193204B029320464B
:101DF0001449154A7923154CA047FB680BB1C82B31
:101E000012D14FF4FA73FB60184BBB62FF233B8087
:101E10000F4BFB6179237B620B4B3B624FF0FF332F
:101E200004E04FF0FF3301E04FF0FF3318460BB0F2
:101E3000BDE8F083F00B0720C802072075C7080033
:101E40009C090B00B0080B0010080B00C7C7080066
:101E500040090B00B4090B002D170800200A0B00E5
:101E60007115080028090B00A90A08002C060B00B0
:101E700039C808002DE9F04190B006460C461546D9
:101E8000169F7E487E498D227E4B984744B1012C97
:101E900040F0AA80306803899D42C0F0E18060E094
:101EA000306803899D42C0F0D2800CE0611989B28C
:101EB000C0470BAB18550134102C04D03068028990
:101EC00063199A42F2D800238DF83C300BA805A97B
:101ED0006D4B98470446B0F1FF3F30D16B4B1B6808
:101EE000DD686B4B98470368009340F291130193B0
:101EF000684B029328466849614A9523674DA84775
:101F00007B68DA680AB1C82A11D140F29112DA600E
:101F10007B68604A9A627B68FF221A807B68604A0D
:101F2000DA617B6895225A627B68554A1A625D497C
:101F300000220B4643F8042B4A605A6099E0059B47
:101F4000584A1360002494E0611989B2C04706AB77
:101F500018550134102C04D03068028963199A4254
:101F6000F2D800238DF8283006A804A94E4B9847D4
:101F70000446B0F1FF3F30D1444B1B68DD68444B51
:101F800098470368009340F291130193414B0293E9
:101F9000284641493A4AA023404DA8477B68DA6861
:101FA0000AB1C82A11D140F29112DA607B68394A2D
:101FB0009A627B68FF221A807B68394ADA617B6803
:101FC000A0225A627B682E4A1A62364900220B46CA
:101FD00043F8042B4A605A604BE0324B049A5A6033
:101FE00001229A60002444E0284B1B68DC68284BDF
:101FF00098470368009340F2911301932B4B02938F
:10200000204625491E4AA823244CA0477B68DA684D
:102010000AB1C82A11D140F29112DA607B68234AD2
:102020009A627B68FF221A807B681D4ADA617B68AE
:10203000A8225A627B68124A1A621A4900220B4689
:1020400043F8042B4A605A604FF0FF3411E0A9B204
:10205000174B98478DF82C000124DFF854802DE7AA
:10206000A9B2134B98478DF818000124DFF840807F
:1020700072E7204610B0BDE8F08100BF900A0B0067
:1020800054080B0039C80800B1150800C802072021
:1020900075C7080028090B00B0080B00C7C7080067
:1020A00040090B00F00B0720911508009C090B005C
:1020B000518408002DE9F04184B00D463D4B9B68EA
:1020C000002B2CD13C4B1B68DC683C4B98470368C9
:1020D000009340F291130193394B02932046394902
:1020E000394AB423394CA047EB680BB1C82B0CD14B
:1020F00040F29113EB60324BAB62FF232B80344BE9
:10210000EB61B4236B62304B2B622A4900220B46F1
:1021100043F8042B4A605A604FF0FF3346E0DFF883
:10212000C880294F40463946B9222A4EB047214C33
:1021300020686168284B984740463946BB22B04723
:102140000022234643F8042B62605A602846234944
:102150000922234B98470346002827D0164B1B68BB
:10216000DC68164B9847036800934FF4FA730193A9
:102170001C4B0293204613493A46BF23134CA047F9
:10218000EB680BB1C82B0FD14FF4FA73EB60154B12
:10219000AB62FF232B800E4BEB61BF236B620A4BBC
:1021A0002B624FF0FF3301E04FF0FF33184604B0CD
:1021B000BDE8F081F00B0720C802072075C70800B2
:1021C0009C090B00B0080B00780E0B00C7C7080075
:1021D00040090B0039C8080041170800000B0B002C
:1021E000A90A08002C060B00900A0B0030B585B038
:1021F0000C463B4B9B6C002B2CD13A4B1B68DD688B
:10220000394B98470368009340F291130193374B81
:10221000029328463649374A4FF4DE73364DA847B5
:10222000E3680BB1C82B0DD140F29113E3602F4B43
:10223000A362FF232380314BE3614FF4DE736362BB
:102240002C4B2362264800214C222D4B98474FF0FF
:10225000FF3341E0224B5A6852B11D46194651F8EE
:10226000080B284B9847284600214C22244B9847BE
:10227000204625490922254B9847034600282BD0A4
:10228000184B1B68DD68184B9847036800934FF4A0
:10229000FA7301931E4B029328461549154A40F2E2
:1022A000C913154DA847E3680BB1C82B0DD14FF4E6
:1022B000FA73E360164BA362FF2323800F4BE361A5
:1022C00040F2C91363620B4B2362054800214C2284
:1022D0000B4B98474FF0FF33184605B030BD00BF99
:1022E000A40B0720C802072075C708009C090B0033
:1022F000B0080B00FC070B00C7C7080040090B0023
:10230000BBCC080055170800000B0B00A90A0800F9
:102310002C060B002DE9F0418AB006461546DDF883
:10232000408011B101295CD063E0006803899A42C2
:10233000C0F098800CE0611989B2B84705AB185518
:102340000134102C04D03068028963199A42F2D803
:1023500000238DF8243005A804A9484B984704466B
:10236000B0F1FF3F36D1464B1B68DD68454B9847BF
:102370000368009340F291130193434B0293284664
:102380004249434A40F2A113424DA847D8F80430CD
:10239000DA680AB1C82A17D140F29112DA60D8F887
:1023A0000430394A9A62D8F80430FF221A80D8F8EB
:1023B0000430394ADA61D8F8043040F2A1125A6286
:1023C000D8F80430324A1A62344800214C22344B87
:1023D00098474FE0314B049A1A6001229A64002416
:1023E00048E011462F4A2D4B2F4CA04704460028A9
:1023F00040D0234B1B68DC68224B9847036800934E
:1024000040F291130193294B029320461F49204A21
:1024100040F2AF131F4CA047D8F80430DA680AB175
:10242000C82A17D140F29112DA60D8F804301F4A56
:102430009A62D8F80430FF221A80D8F80430164A7D
:10244000DA61D8F8043040F2AF125A62D8F804309A
:102450000F4A1A62114800214C22114B98474FF045
:10246000FF3407E091B2124B98478DF81400012415
:102470000F4F68E720460AB0BDE8F081B1150800AB
:10248000C802072075C708000C0B0B00B0080B0032
:1024900064080B00C7C7080040090B00A40B072005
:1024A000BBCC0800B52A080059080800240B0B0013
:1024B000518408002DE9F04F8BB0054688469946B7
:1024C000002A00F09A80934600231C46DFF860A1A2
:1024D0004C4E58F82370B9F1010F01D1002C29D0CE
:1024E00068685146B04728B3474B1B68DC68474BC8
:1024F0009847036800934FF4FA730193444B029397
:1025000020464449444A4FF48773444CA047EB6843
:102510000BB1C82B6ED14FF4FA73EB603C4BAB623E
:10252000FF232B803E4BEB614FF487736B623A4B7A
:102530002B625FE0384605A93A4B98470246B0F156
:10254000FF3F25D1304B1B68DC68304B9847036850
:1025500000934FF4FA730193334B029320462D49B5
:102560002D4A4FF48A732D4CA047EB680BB1C82B52
:1025700040D14FF4FA73EB602B4BAB62FF232B80FF
:10258000274BEB614FF48A736B62234B2B6231E074
:102590006868264905ABB047024628B31A4B1B684A
:1025A000DC681A4B9847036800934FF4FA73019361
:1025B000174B029320461749174A40F21913174C3C
:1025C000A047EB680BB1C82B14D14FF4FA73EB6042
:1025D0000F4BAB62FF232B80114BEB6140F21913C1
:1025E0006B620D4B2B6205E0013423465C457FF4A2
:1025F00070AF03E04FF0FF3200E0002210460BB056
:10260000BDE8F08FA1090800C802072075C70800BF
:10261000400B0B00B0080B0048080B00C7C70800B0
:1026200040090B0071150800540B0B00680B0B00E0
:102630003C0B0B002DE9F04F85B080468A46D1F85F
:1026400000904E6840686A496A4B984730B906EB7B
:10265000090BD94538BF4C4630D385E0664B1B6823
:10266000DC68664B9847036800934FF4FA73019354
:10267000634B029320466349634A40F22913634C3B
:10268000A047D8F80C3013B1C82B40F0A4804FF409
:10269000FA73C8F80C305A4BC8F82830FF23A8F852
:1026A00000305B4BC8F81C3040F22913C8F82430C6
:1026B000554BC8F820304FF0FF3394E0102E34BF54
:1026C000354610250AF10807204639462A46514B5F
:1026D000984700965048294622461023DFF850C1FB
:1026E000E047404639462A464C4514BF00230123A3
:1026F0004A4DA84700282ED03F4B1B68DC683F4B53
:102700009847036800934FF4FA730193444B029384
:1027100020463C493C4A4FF49A733C4CA047D8F8B9
:102720000C300BB1C82B59D14FF4FA73C8F80C30E8
:102730003B4BC8F82830FF23A8F80030344BC8F8CA
:102740001C304FF49A73C8F824302F4BC8F820304F
:102750004FF0FF3347E0384600214022314B984785
:102760001034103EA345A9D8D8F804002E49214BB7
:1027700098470346002836D01F4B1B68DC681F4B68
:102780009847036800934FF4FA730193274B029321
:1027900020461C491C4A4FF49D731C4CA047D8F896
:1027A0000C300BB1C82B1CD14FF4FA73C8F80C30A5
:1027B0001E4BC8F82830FF23A8F80030144BC8F887
:1027C0001C304FF49D73C8F824300F4BC8F82030EC
:1027D0004FF0FF3307E04FF0FF3304E04FF0FF33DB
:1027E00001E04FF0FF33184605B0BDE8F08F00BFA1
:1027F000700B0B00A1090800C802072075C708006C
:10280000740B0B00B0080B0034080B00C7C708009E
:1028100040090B0069170800880B0B00B52408005D
:10282000BC0B0B00BBCC0800CC0B0B00D00B0B007F
:1028300039C8080030B585B00C46744B9B6C33BB6F
:10284000734B1B68DD68734B98470368009340F235
:1028500091130193704B029328467049704A4FF4CC
:10286000A273704DA847E36813B1C82B40F0C48031
:1028700040F29113E360684BA362FF2323806A4B0D
:10288000E3614FF4A2736362654B2362B4E00846D0
:10289000664B9847B0F1FF3F26D15D4B1B68DD6862
:1028A0005C4B9847036800934FF4FA730193604BB5
:1028B0000293284659495A4A4FF4A473594DA847E0
:1028C000E36813B1C82B40F097804FF4FA73E360CC
:1028D000574BA362FF232380534BE3614FF4A47350
:1028E00063624F4B236287E060685249524B9847BE
:1028F00028B3474B1B68DD68464B98470368009335
:102900004FF4FA7301934D4B029328464349444ACE
:102910004FF4A773434DA847E3680BB1C82B6BD1A5
:102920004FF4FA73E360454BA362FF2323803E4BD1
:10293000E3614FF4A7736362394B23625CE0204686
:1029400032493F4B984728B3314B1B68DD68314B08
:102950009847036800934FF4FA730193394B02933D
:1029600028462E492E4A40F253132E4DA847E368BD
:102970000BB1C82B40D14FF4FA73E360314BA36223
:10298000FF232380284BE36140F253136362244BFF
:10299000236231E060682C49274B9847054628B3ED
:1029A0001B4B1B68DD681B4B9847036800934FF473
:1029B000FA730193254B029328461849184A4FF49D
:1029C000AC73184DA847E3680BB1C82B14D14FF472
:1029D000FA73E3601D4BA362FF232380124BE36174
:1029E0004FF4AC7363620E4B236205E0074800218D
:1029F0004C22174B984706E0044800214C22144B08
:102A000098474FF0FF35284605B030BDA40B07208E
:102A1000C802072075C708009C090B00B0080B000E
:102A20008C0E0B00C7C7080040090B00190A0800EC
:102A3000E40B0B00F40B0B00A1090800000C0B00C9
:102A4000352608001C0C0B00340C0B00380C0B0056
:102A5000BBCC080070B504460D4643680F2B05D863
:102A60005A1C4260023344F8231070BD0C480D49D3
:102A700040F271120C4EB04704F10806206831464E
:102A800062680A4B984722686368134423603046A3
:102A900000214022064B984701236360A56070BD6A
:102AA0004C0C0B00B40E0B0039C808005517080079
:102AB000BBCC08002DE9F04786B007460C4615460A
:102AC0009846DDF838A02A482A494FF4C1722346B7
:102AD000294CA047386803899D4216D2B8F1000FEF
:102AE000D8BF002412DD35E0611989B2C84701ABB7
:102AF00098550134102C09D026463868028963198C
:102B00009A4203D94445EFD100E0002406AB1C44AF
:102B1000002304F8143C1948164940F2871201AB0F
:102B2000154CA04701A86946154B98470446B0F1DB
:102B3000FF3F06D113480F4940F289120E4B9847C8
:102B400011E050460099104B98470123CAF84830CD
:102B5000002408E0A9B20D4B98478DF80400012429
:102B6000DFF82890C8E7204606B0BDE8F08700BF30
:102B7000BC0C0B0024080B0039C808002C0D0B00FE
:102B8000911508009C0D0B00552A0800518408007F
:102B9000F0B587B004460F46164685680495059043
:102BA0003A4B9847002827D0394B1B68DD68394BD2
:102BB00098470368009340F2F9130193364B029350
:102BC00028463649364A4FF40173364DA847E36824
:102BD0000BB1C82B55D140F2F913E3602E4BA36221
:102BE000FF232380304BE3614FF4017363622C4B6E
:102BF00023624FF0FF3046E0AB6813B96B68002BDF
:102C000030D038463146294A04AB294EB047B0F19E
:102C1000FF3F27D11E4B1B68DD681E4B984703689A
:102C2000009340F291130193224B029328461B49D3
:102C30001B4A40F20A231B4DA847E3680BB1C82B7F
:102C400017D140F29113E3601A4BA362FF23238054
:102C5000154BE36140F20A236362114B23624FF08C
:102C6000FF340AE02B683BB12846214698470446CA
:102C700003E04FF0FF3400E000240F4B984720465C
:102C800001E04FF0FF3007B0F0BD00BFAD17080006
:102C9000C802072075C70800080E0B00B0080B001B
:102CA000A00E0B00C7C7080040090B00211908003F
:102CB00015070800200E0B007D17080010B50D4801
:102CC0000D4B984700203E210C4B98470C4CA047D9
:102CD0000028FCD00B4B98470B4A0C4B9A620C4CCB
:102CE000A0470028FCD000200A4B98470A4B984781
:102CF00010BD00BF00BD0105E53D08007D3A08009C
:102D0000D13A0800E13A0800013F062000060E40D3
:102D1000F13A0800193A0800C93C08002DE9F041D1
:102D20000C46904660B9002A0EDD8F18094E0A4DF8
:102D3000306821462B6898470134BC42F8D106E040
:102D40004FF0FF30BDE8F0810020BDE8F081404643
:102D5000BDE8F081245B07201C5B07202DE9F041D2
:102D60000E461546013802280FD892B10024DFF82C
:102D70003C800D4FD8F80000315D3B689847002833
:102D80000ADB0134A542F5D10AE04FF0FF30BDE87F
:102D9000F0810020BDE8F0814FF0FF30BDE8F08108
:102DA0002046BDE8F08100BF205B0720245B0720A0
:102DB0002DE9F041064600240A4D0B4FDFF82C8028
:102DC0006359B34208D12B195B68012B02D13046FD
:102DD000C04701E03046B8470834202CF0D1BDE8A8
:102DE000F08100BFD80E0B002538080041380800DC
:102DF0002DE9F041064600240A4D0B4FDFF82C80E8
:102E00006359B34208D12B195B68012B02D13046BC
:102E1000C04701E03046B8470834202CF0D1BDE867
:102E2000F08100BFD80E0B0041380800253808009B
:102E3000F0B583B004460F461646036843F010030E
:102E40000360012201AB304DA84720B1226822F077
:102E50001002226056E0019B13F0040F05D1236895
:102E600023F010032360FF204CE02EB9236823F0E9
:102E700010032360002045E02046394611226B46AE
:102E8000214DA84720B1226822F01002226039E0CB
:102E9000019B13F4805F1DBF009A82F40052C2F3BD
:102EA0004032012213F4005F0AD0009800F4804001
:102EB000D0F1010138BF0021002818BF012200E035
:102EC000012113F4006F03D0009B13F4805F05D140
:102ED0002AB1636843F00103636004E00021636882
:102EE00023F00103636021B1636843F00203636070
:102EF00003E0636823F002036360236823F0100398
:102F00002360002003B0F0BD813208002DE9F041BC
:102F100082B004460E46036843F0100303600022AB
:102F200001AB584DA84720B1226822F01002226060
:102F3000A5E0019B23F4B04343F480630193204652
:102F400031460022504DA84720B1226822F01002DD
:102F5000226094E020463146042240F2E1134A4DBB
:102F6000A84720B1226822F01002226087E02046A4
:102F70003146002201AB434DA84720B1226822F020
:102F8000100222607BE0019B43F4445301932046EE
:102F9000314600223C4DA84720B1226822F01002A1
:102FA00022606CE0019B23F4806343F4007301937F
:102FB000204631460022344DA84720B1226822F035
:102FC000100222605BE0314D4FF001082D4F20468A
:102FD0003146424601ABB84720B1226822F01002C8
:102FE00022604CE0019B13F0200F07D1013DEED190
:102FF000236823F010032360012040E0204631467F
:1030000005226B461F4DA84720B1226822F010020E
:10301000226034E0009B13F4807F09D113F0400F4D
:103020000CD113F0800F08BF002309D0002300E06B
:103030000123626842F00102626005E00123FFE7BC
:10304000626822F00102626023B1636843F0020308
:10305000636003E0636823F002036360D4F8C03068
:1030600043F00103C4F8C030D4F8C03043F0020389
:10307000C4F8C030236823F010032360002002B09E
:10308000BDE8F08181320800E132080040420F00C3
:103090002DE9F04683B006468A464FF4004302AF5E
:1030A00047F8043D026842F01002026000220E4C14
:1030B000A0470A244FF000090C4D304651464A46BD
:1030C0003B46A847013C019B13F4004F01D0002C64
:1030D000F3D1336823F010033360201C18BF0120A4
:1030E00003B0BDE8F08600BFE1320800813208007D
:1030F0002DE9F04383B005468946304B9A4259D8B2
:103100002F4B9A4209D82F4B9A4209D82E4B9A42FC
:103110008CBF4FF48062002204E04FF4406201E073
:103120004FF400626B6823F440636B606B681A4372
:103130006A6002AB002243F8042D2A6842F01002B4
:103140002A60284649460222204CA04740F28112BC
:10315000019B934216D04C4620264FF002081B4F8D
:10316000013404F01F0428462146424601ABB8470B
:1031700040F28112019B934205D0731E13F0FF06AB
:10318000EED113E04C462B6823F010032B60FF2C8C
:1031900010D028462146112201AB0C4EB047A14564
:1031A00008D0284649460A4B984703E02B6823F08D
:1031B00010032B60002003B0BDE8F083006889098C
:1031C00000B4C404005A6202002D310181320800AB
:1031D00091300800038801339BB28B4228BF002343
:1031E00003807047F0B40768416804693B6823F0C6
:1031F00008033B6000230385C384858C65B11A46B0
:103200004FF00046E150E5186E600132858C01F206
:10321000EE5108339542F5D804EBC5054FF0404315
:1032200045F8043C24F00304FC61F0BC704700BF87
:10323000F0B407688168C4683B6823F004033B600E
:1032400000234384058C65B11A461E4621F0030510
:10325000E550E5186E600132058C803108339542E7
:10326000F4D805F10055013D54F8353043F0020320
:1032700044F8353024F00304BC61F0BC704700BF53
:1032800010B483B0846814F0040FFBD0920402F4ED
:10329000F80242F0C04242F40032C90501F0786100
:1032A0000A434263002201920C4905E0019A01326F
:1032B0000192019A8A420CD8826812F0040FF5D06C
:1032C000826812F0040FFBD0426B92B21A600020A9
:1032D00000E0012003B05DF8044B70473F420F004F
:1032E00010B483B0846814F0040FFBD0920402F48D
:1032F000F80242F0A04242F40032C90501F07861C0
:103300000A439BB21A43426300230193094A05E032
:10331000019B01330193019B934205D8836813F00D
:10332000040FF5D0002000E0012003B05DF8044B4D
:10333000704700BF3F420F0070B504460D46164669
:10334000002303604FF0FF33C362036843F02003A0
:1033500003600723036277234361436A436843F4AE
:1033600008334360137823B1436843F0100343608C
:1033700003E0436823F010034360737823B163686C
:1033800043F02003636003E0636823F0200363607D
:103390001E4B23F00703AB601D4B23F00703EB60CC
:1033A00010232B841B4B23F007036B601A4B23F075
:1033B00007032B610823AB84184BEB612846184B9D
:1033C00098472846174B9847236843F00803236023
:1033D000236843F004032360236843F080032360E1
:1033E00043F6F443A362727933791B0443EA026320
:1033F000B2781343F27843EA0223C4F89830F279A2
:10340000B37943EA0223C4F89C3070BDD03B072057
:10341000D0430720400C0720000C0720B03B0720BA
:1034200031320800E53108002DE9F04F85B004463F
:1034300093460193438CADF80E30C2680091002989
:1034400000F0998002EBC30500210198016052F859
:10345000333013F0010F00F090808A4688460F4603
:103460004F4E6B6813F4804F19D0638CBDF80E205B
:103470009A4200F0888004F12207E26802EBC3055B
:1034800052F8331021F0010142F833103846218CF4
:10349000B047638CBDF80E209A42EED173E00DF177
:1034A0000E00218CB047BAF1000F51D0628CBDF8EC
:1034B0000E309A4213D104F12206394D628CE36832
:1034C00053F8321021F0010143F832103046218CBC
:1034D000A847628CBDF80E309A42EFD14FE007F159
:1034E00080035B4586BFC7EB0B091FFA89F94FF0D4
:1034F00080092968404621F003014A46294B984734
:10350000C8444F446B6813F4004F28D0C3F30B0337
:1035100001980360638CBDF80E209A4211D004F12B
:1035200022061F4DE26852F8331021F0010142F8E3
:1035300033103046218CA847638CBDF80E209A4288
:10354000F0D1019A1068874234BF0420002024E0A3
:103550002B6823F001032B60BDF80E306384BDF8A7
:103560000E20E36803EBC20553F8323013F0010F6D
:103570007FF477AF05E005200FE003200DE0032086
:103580000BE0032009E00DF10E00218CB047DDF8BF
:1035900000804FF0010A002788E705B0BDE8F08FF2
:1035A000D5310800A9CC08002DE9F047044615469E
:1035B0001F46066840F2EE52954233D8D0F810C04C
:1035C000B0F82680028D6FEA08031A44838C92FBC0
:1035D000F3F003FB102343B30CEBC809D4F81CA091
:1035E00029B125B15CF838002A46114B98474AF8B2
:1035F0002870E28CA38C013B9A42C5F30A0508BFF0
:1036000045F0804545F40045C9F8045004F1260012
:10361000A18C084B9847336843F400733360002053
:10362000BDE8F0870520BDE8F0870220BDE8F087FF
:10363000A9CC0800D53108002DE9F04184B004463A
:1036400007687B6A03933B6A02937B6901933B6B38
:10365000039A43F47F0343F4434322EA03030393AF
:10366000039B13F0020F03D1029B13F0020F10D043
:10367000029B03F00403002B14BF06200220029BD0
:1036800013F0010F18BF40F001003862636903B105
:103690009847039B13F0800F03D1019B13F0200F79
:1036A00067D0019B13F0040F14D0238DE18CC91A4D
:1036B000A28C91FBF2F502FB151242F00405E669BB
:1036C00006EB830620462C4B98473B6843F00803E3
:1036D0003B6000E02025019B13F0020F18BF45F06E
:1036E0000205019B13F0100F18BF45F01005019B58
:1036F00013F0400F18BF45F040057D61E28C238D2B
:103700009A421ED004F128081C4F238DE26902EB77
:103710008306216901EBC3014968002911DA52F8D7
:1037200023300BB1284698474046A18CB847E28C1D
:10373000238DD21AA38C92FBF3F103FB1123002BF0
:10374000E3D1019B13F0040F03D033680BB128467B
:103750009847238DE28CD2431A44A38C92FBF3F159
:1037600003FB112394F82A108B4202DBA36903B1F7
:10377000984704B0BDE8F081E5310800D531080074
:103780004264B1F1805F16D004D8C1B1B1F1006FCD
:103790000AD013E0B1F1405F11D0B1F1605F0ED0FB
:1037A000B1F1205F0AD17047036F016F0B4023EA2C
:1037B0000203036702E0036F13430367426070472D
:1037C000416412F0010F14BF4166016612F00A0F46
:1037D00014BF0162416212F0020F02D0C0F88010E3
:1037E00004E012F0080F18BFC0F8801041610160BA
:1037F000704700BF10B44164019C0CB1416600E009
:1038000001660BB1016500E041650AB1016300E0AA
:103810004163016101605DF8044B7047C06C704703
:10382000806C7047430903F5001303F207735B02D2
:1038300000F01F00012202FA00F01863704700BF79
:10384000430903F5001303F207735B0200F01F0046
:10385000012202FA00F05863704700BF430903F5E4
:10386000001303F207735B029A6B00F01F00012143
:1038700001FA00F0104214BF58631863704700BF8C
:1038800070B582B00D46440904F5001404F20774C3
:10389000660201F0F044B4F1205F30D006D8B4F1F4
:1038A000006F0AD0B4F1805F18D049E0B4F1405FF6
:1038B00030D0B4F1605F2DD042E000F01F00012451
:1038C000844030464FF0006122461F4B984715F068
:1038D000010F14BF74663466012032E000F01F004F
:1038E0000124844030464FF080512246164B9847C1
:1038F00015F0010F14BF74663466012021E000F05A
:103900001F010124304604FA01F12A460F4B984763
:10391000204616E000F01F01012405F0605205EA80
:1039200004030093304604FA01F1B2F1605F14BF62
:1039300000220122C5F38003054DA847204600E080
:10394000002002B070BD00BF81370800C1370800F9
:10395000F5370800F8B504460E460E4B9847054665
:1039600020460D4B9847054012D00C4C54F80C3CA7
:10397000B3420AD154F8081C294206D023683046C5
:10398000984754F8083C25EA03051034002DEDD182
:10399000F8BD00BF1D380800213808005C4407202E
:1039A00008B502480B21024B984708BD000E0E4097
:1039B0005539080008B502480C21024B984708BD4C
:1039C00000100E405539080008B502480D21024B81
:1039D000984708BD00120E405539080008B5024846
:1039E0000E21024B984708BD00140E4055390800BF
:1039F00008B502480F21024B984708BD00160E403B
:103A00005539080008B502481021024B984708BDF7
:103A100000180E4055390800174B1A6B22F070023F
:103A2000104318639B6E13F0080F09D14FF4006325
:103A3000114901E0013B19D08A6E12F0080FF9D04C
:103A40000D4B1A6B22F0030242F002021A63986EC9
:103A500010F008000CD14FF40063074901E0013B6E
:103A600008D08A6E12F0080FF9D070470120704715
:103A7000002070470120704700060E4038B1114900
:103A80000B6A114A1A40114B13430B6270470D4ADF
:103A9000136A23F45C1323F0030343F45C1343F031
:103AA0000103090289B20B431362936E13F0010FF5
:103AB000FBD0044A136A43F09B7343F480331362D0
:103AC000704700BF00060E40FCFFC8FE0200370131
:103AD000024B986E00F48030704700BF00060E4025
:103AE0004FF00052014B9A62704700BF00060E4033
:103AF000024B986E00F00200704700BF00060E40B7
:103B00002C2820D81F280DD8124B9A6901238340F6
:103B10001A40934219D0012303FA00F00D4B1861AB
:103B2000002070470B4BD3F8082120380123834035
:103B30001A4093420BD0012303FA00F0054BC3F85F
:103B400000010020704701207047002070470020CE
:103B5000704700BF00060E40836823F07F4323F4C4
:103B6000706343F02543090201F470610B438360E5
:103B7000704700BF014B0360704700BF080000A5FD
:103B80004068704710B4AC2303600A684B68B2FB0E
:103B9000F3F31B095C1E4FF6FE7294420AD80362CF
:103BA0008B68436040F20223C0F820315023036049
:103BB000002000E001205DF8044B7047436913F0DA
:103BC000020F02D0C161002070470120704700BF82
:103BD000436913F0010F03D083690B700020704715
:103BE00001207047436913F0020F04D0C1F30801AC
:103BF000C161002070470120704700BF436913F086
:103C0000010F05D08369C3F308030B6000207047E0
:103C100001207047FEE700BF10B51E4B1E4A9A42B6
:103C200003D01E4B1B4A9A4204D31D4B1D4A9A4295
:103C30000FD31AE01C4B1D4CE41A24F00304043487
:103C40000023144814495A581A500433A342FAD195
:103C5000EBE7174B1749C91A21F003011A1D11444C
:103C6000002243F8042F8B42FBD1134A22F0604319
:103C700023F07F0311498B6002F16042B2F5801F8F
:103C800003D28A6842F000528A600D4B98470D4B70
:103C90009847FEE700000720BC130B00880B0720A5
:103CA000FC680720880B0720040007208B0B0720E7
:103CB000840B0720F76807200000080000ED00E0F3
:103CC000EDC70800D54008003E4B1B6B03F0030313
:103CD000032B5FD8DFE803F0020E2B2B3A4B5B6916
:103CE00013F0800F14BF4FF400424FF4FA42374BE9
:103CF0001A604FE0334B1B6A13F0807F03D0344AC5
:103D0000324B1A6046E0334A304B1A602D4B1B6A27
:103D100003F07003102B02D0202B04D03AE02E4A7F
:103D20002A4B1A6036E02A4A284B1A6032E0254BAB
:103D30001B6A13F0807F03D0254A244B1A6012E0DF
:103D4000244A224B1A601F4B1B6A03F07003102B8E
:103D500002D0202B04D006E01F4A1C4B1A6002E060
:103D60001B4A1A4B1A60174B1B6B03F00303022B01
:103D70000DD1144B986A996A144BC0F30A401A6823
:103D800000FB0222C9B2B2FBF1F21A6002E0134A50
:103D90000E4B1A600B4B1B6B03F07003702B07D19B
:103DA0000A4B1A680E49A1FB020252081A607047BA
:103DB000044B196B054BC1F302111A68CA401A6013
:103DC000704700BF00060E40101A0E40A8020720E0
:103DD000001BB70000093D0000127A00001C4E0EC7
:103DE000ABAAAAAA1B4B984206D800231A4A136012
:103DF00002F5007213607047184B984207D84FF4D1
:103E00008073154A136002F5007213607047144BFB
:103E1000984207D84FF400730F4A136002F50072FE
:103E2000136070470F4B984207D84FF440730A4A0B
:103E3000136002F50072136070470B4B984294BFF9
:103E40004FF480634FF4A063034A136002F50072DD
:103E500013607047BFEA2101000A0E407FF0FA02AA
:103E6000FF8FD003FFB3C4047F4A5D05094B1B6875
:103E700013B9094A074B1A60064B1B681A18074901
:103E8000914204DB1046034A1060184670474FF019
:103E9000FF307047C044072000890720FC7F0820BE
:103EA0004FF0FF30704700BF4FF400534B600020CD
:103EB000704700BF0120704700207047F0B583B005
:103EC000102000210A461B4B98470446002150222F
:103ED000194B98472046FF21184B9847184B984795
:103EE00018B9184E184D194F04E0FEE74FF4FA7058
:103EF000174B9847204601A9B0470028F6D12D203E
:103F00000121A847019880B1B8470198114B984703
:103F10008DF803009DF8033001980F4B98478DF8FA
:103F200003009DF80330002301932D200021A847B2
:103F3000E0E700BFC553080085540800CD540800D1
:103F4000CD110800115508008D430800D911080053
:103F5000BD4F0800895608005954080008B50C26C2
:103F6000034D044C3046A8474FF47A70A047F9E758
:103F70005D380800BD4F0800F0B583B004460D461B
:103F8000002301931F4B984207D11F461E4E38460F
:103F90002946B0470028FAD119E01C4B984209D1B4
:103FA0001F461B4E384601A9B0470028FAD1019B95
:103FB0002B7019E0174B984209D11E46144C30461D
:103FC00001A9A0470028FAD1019B2B7018E0124BE1
:103FD0009C4209D11E460E4C304601A9A04700283C
:103FE000FAD1019B2B700BE00C4B9C4208D11E4672
:103FF000074C304601A9A0470028FAD1019B2B703D
:1040000003B0F0BD00080E40D13B0800008009401D
:10401000FD3B080000C0094000000A4000400A4083
:1040200070B50C46214B984207D11E46204D3046B4
:104030002146A8470028FAD12BE01E4B984207D111
:104040001E461D4D30462146A8470028FAD122E0E1
:104050001A4B984207D11E46174D30462146A847B5
:104060000028FAD119E0164B984207D11E46124D8E
:1040700030462146A8470028FAD110E0114B98425B
:104080000FD11E460C4D30462146A8470028FAD1D4
:1040900009E0012070BD012070BD012070BD01202C
:1040A00070BD002070BD012070BD00BF00080E4033
:1040B000BD3B080000800940E53B080000C0094006
:1040C00000000A4000400A4008B5014B984708BD6F
:1040D0009D45080070B588B04FF40042354B5A60DA
:1040E000354B9847354C4FF44073236663656362E4
:1040F000C4F88030226F22F4407222676360082087
:104100002F4EB0472F4D304B1D60304A304B1A6058
:10411000304A314B1A60314B05934FF4E13306932B
:104120004FF4006307930820B047284605A92C4B9D
:1041300098472C4E3368986800212B4DA847336868
:1041400058680021A847336898680021A8474FF4B1
:1041500080522261C4F8A0202263244B4FF4005106
:104160001961C3F8A01019631A61C3F8A0201A637B
:104170001F48204CA04720482049A04720482149FB
:10418000214AA047002300930193029303931F4801
:104190001F4920221F4CA047012802D01E48154B62
:1041A000984708201D4B98471D4B9847002008B0A2
:1041B00070BD00BF501A0E40BD2C0800000E0E400E
:1041C000013B080000080E40245B07202140080046
:1041D000205B0720793F08001C5B072000BD01051C
:1041E000853B0800C8020720F1CC080000100E40F3
:1041F000100F0B0039C80800340F0B003C0F0B00E8
:10420000480F0B00600F0B006C0F0B005D3F0800A8
:10421000780F0B00054A08007C0F0B006143080073
:10422000394D080010B584B003A800210D4B984704
:104230000D4803A90D4B984703A800210C4B984744
:1042400003A80C4B9847022300930B480B4900220C
:104250004FF420630A4CA04700200A4B984704B053
:1042600010BD00BF41C408008942080079640800FD
:1042700001C50800C5C40800A00F0B00BD3E080022
:10428000EDC60800E14B080070B588B00546134B39
:1042900005936FF07F430693114B0793114C002356
:1042A0000093114B0193114B0293204605A906AAD6
:1042B00007AB0F4EB04720460E4B984720460E499D
:1042C0000E4B98470E480F4B984720460E4B984789
:1042D00028460E4B984708B070BD00BFA9FE2424A5
:1042E0000AD902FA285B07205DC20800EDBE08006B
:1042F000417E0800957E080011430800D97E080021
:10430000A40F0B0039C80800A17E0800E9C408000A
:1043100030B589B0044690F82D3013F0010F0ED05F
:1043200009480A4DA8470A4B0193201D094B98479D
:10433000014601A8084B984701A8A84702E0074892
:10434000024B984709B030BDC80F0B0039C80800B0
:1043500049503D00956E0800A9CE0800D40F0B000F
:1043600010B584B000900023019302930393044896
:1043700004494FF48072044CA04704B010BD00BF44
:1043800025420800E40F0B00054A080038B5044632
:104390000D46154B9847012D11D1012C07D014B1B2
:1043A000022C08D01CE00C20104B984718E02D2060
:1043B0000E4B984714E02C200C4B984710E0012C32
:1043C00007D014B1022C08D00AE00C20084B984703
:1043D00006E02D20064B984702E02C20044B98471E
:1043E000044B984738BD00BF8D4D0800F12D0800E3
:1043F000B12D0800C94E080000F1080343604FF0DA
:10440000FF328260C360036100230360704700BF16
:1044100000230361704700BF43685A684A604268DE
:104420008A605A689160596041600861036801338D
:104430000360704710B40C68B4F1FF3F01D1036909
:104440000AE000F10803C2681268944204D35B6872
:104450005A6812689442FAD25A684A6091608B6036
:10446000596008610368013303605DF8044B7047CD
:10447000436882689A60836842685A6003695A6830
:10448000824204BF82685A60002202611A68013ABF
:104490001A6070474FF0807340F8043C40F8081CE5
:1044A000002340F80C3C40F8202C4038704700BFF7
:1044B000064B19680868B0E8F00F80F309884FF0E0
:1044C000000080F311884EF00D0E7047B8450720AC
:1044D00002480068006880F3088800DF08ED00E00B
:1044E00010B50B4B1A6842F470021A601A6842F059
:1044F00070421A60074AA3F60C531A600722043B65
:104500001A600024044B1C60044B9847204610BDE1
:1045100020ED00E01F480100AC020720D144080054
:104520004FF08052014B1A60704700BF04ED00E06D
:104530004FF0500080F31188024B1A6801321A6064
:10454000704700BFAC020720044A1368013B1360A8
:104550001BB94FF0000080F311887047AC020720B0
:10456000EFF309800C4B1A6820E9F00F10602DE979
:1045700008404FF0500080F3118800F083FD4FF0A9
:10458000000080F31188BDE8084019680868B0E8A9
:10459000F00F80F309887047B845072008B54FF041
:1045A0008052064B1A604FF0500080F31188044B84
:1045B00098474FF0000080F3118808BD04ED00E03B
:1045C000BD4D080010B50446044B98472046044BE7
:1045D00098470446034B9847204610BD8D4D080070
:1045E00079C80800C94E080010B5044630B1044B24
:1045F00098472046034B9847034B984710BD00BF90
:104600008D4D080089C80800C94E080010B5044641
:10461000036CEBB16AB980681A460F4B9847A268E1
:10462000236C1344A3606268934211D32368A36090
:104630000EE0C0681A46084B9847226C5242E36865
:104640001344E36021688B4202D263681A44E2603B
:10465000A36B0133A36310BDA9CC080038B5034692
:1046600005685DB1026CC4681444C460406884424B
:1046700028BFDD600846D968014B984738BD00BFA8
:10468000A9CC0800F8B504461C4B9847A36C002B36
:1046900011DD636A7BB104F12406194D194F01E065
:1046A000636A43B13046A84700B1B847A36C013BE9
:1046B000A364002BF4DC4FF0FF33A364124B984744
:1046C0000E4B9847636C002B11DD23697BB104F11D
:1046D00010060B4D0B4F01E0236943B13046A8474C
:1046E00000B1B847636C013B6364002BF4DC4FF00E
:1046F000FF336364044B9847F8BD00BF31450800A1
:10470000AD510800A552080049450800F8B50D460E
:10471000074630B34C20144B9847044610B305FBB2
:1047200007F6701C104B98472060A8B1831963608E
:104730000023A363A060761B3044E060E763256438
:104740004FF0FF336364A36404F11000074DA847E2
:1047500004F12400A84705E02046054B98470024B3
:1047600000E000242046F8BDC5450800F9430800D4
:10477000E94508002DE9F04F85B004468B460192CB
:1047800000934FF00009324DDFF8ECA0314EA847FE
:10479000A26BE36B9A4212D220465946009A2E4BE6
:1047A0009847636A3BB104F124002C4B98470128D9
:1047B00001D12B4B9847274B9847012044E0019BA0
:1047C0001BB9244B984700203EE0B9F1000F03D1FC
:1047D00002A8D0474FF00109B047224B9847A8479D
:1047E000636CB3F1FF3F04BF00236364A36CB3F1B8
:1047F000FF3F04BF0023A364B04702A801A91A4BDE
:104800009847D8B9A847D4F83880E76BB047B8457F
:104810000ED104F110000199144B98472046144B17
:104820009847144B98470028B1D10D4B9847AEE7F5
:1048300020460F4B98470F4B9847A8E720460C4B54
:1048400098470C4B9847002005B0BDE8F08F00BF9B
:1048500031450800494508000D460800AD510800E3
:10486000214508008D4D0800395208005D510800AF
:1048700085460800C94E0800215208002DE9F04F76
:1048800085B004468A46019299460027374DDFF8E5
:104890000481374EA847A26B1AB3E56820465146FB
:1048A000344B9847B9F1000F0DD1A36B013BA363C3
:1048B000236993B104F110002F4B984701280CD1C4
:1048C0002E4B984709E0E560636A33B104F1240098
:1048D000294B984708B1294B9847254B9847012009
:1048E00041E0019B1BB9224B984700203BE017B9E0
:1048F00002A8C0470127B047214B9847A847636CDF
:10490000B3F1FF3F04BF00236364A36CB3F1FF3F27
:1049100004BF0023A364B04702A801A9194B98471C
:10492000D8B9A847D4F838B0B047BBF1000F0ED1C2
:1049300004F124000199144B98472046134B9847E3
:10494000134B98470028A5D10C4B9847A2E7204667
:104950000E4B98470E4B98479CE720460B4B9847C9
:104960000B4B9847002005B0BDE8F08F314508009B
:10497000494508005D460800AD5108002145080082
:104980008D4D0800395208005D5108008546080029
:10499000C94E08002152080038B505460068024C8F
:1049A000A0472846A04738BDE945080010B5044691
:1049B0000E4B1B6858600E4B1B68984207D20D4B7C
:1049C00018680A4B196804310B4B984710BD0B4B04
:1049D0001868064B19680431074B9847084B1B6849
:1049E0009C423CBF064B1C6010BD00BFB845072071
:1049F000CC44072070450720354408008C4507202B
:104A0000B40207202DE9F84F81460F4693469A4697
:104A10000B9E0C9D4C20594B98470446002800F0F3
:104A2000A880002D40F0A2804FEA8B00534B98479E
:104A3000206318B92046524B98479AE0A5214FEAC7
:104A40008B02504B98470BF1804B0BF1FF3B236BD4
:104A500003EB8B0B2BF0070B04F1340039461422C7
:104A6000494B9847002384F847300A9F072F28BFF7
:104A70000727E762251D2846DFF85C81C04704F15F
:104A80001800C0472461C7F10807A761646258464F
:104A9000494652463D4B9847206006B134603C4B36
:104AA00098473C4B1A6801321A603B4B1B6813BB9A
:104AB000394B1C60374B1B68012B27D1374E06F151
:104AC000A008374F3046B84714364645FAD1DFF8CC
:104AD0000C814046324EB047324F3846B0473248DC
:104AE000B0473248B0473248B047324BC3F8008035
:104AF000314B1F600AE0314B1B683BB9264B1B68EA
:104B0000DB6A0A9A9A4224BF234B1C60E06A2C4B52
:104B10001B68984284BF2A4B18602A4B1A68A2640B
:104B200001321A60284B1B68984284BF264B1860DC
:104B300000EB8000194B03EB80002946234B98477C
:104B4000234B98471D4B1B6853B1134B1B68DB6A03
:104B50000A9A9A4207D91F4B98470120BDE8F88F5F
:104B60000120BDE8F88F0120BDE8F88F05632846D5
:104B700064E74FF0FF30BDE8F88F00BFC54508007F
:104B8000E9450800BBCC0800FFCE080095440800AA
:104B90003145080090450720B8450720D04407203C
:104BA000F9430800E4450720944507207445072091
:104BB000BC4507208C45072070450720A8450720E5
:104BC00008460720B0450720C444072019440800C0
:104BD000494508002145080011440800D045072038
:104BE00070B50446164B9847164B1B689C4203D081
:104BF00026462CB9264600E00026124B1C68FFE72B
:104C0000251D2846104B9847A36A1BB104F11800D4
:104C10000D4B98470D4829460D4B98470D4B1A6888
:104C200001321A600C4B1A6801321A600B4B98471C
:104C30000B4B1B6813B10EB90A4B984770BD00BFF0
:104C400031450800B8450720714408007445072025
:104C500019440800C8440720B0450720494508000A
:104C6000A84507202145080010B50446044B984785
:104C70000CB9044B1C68E46A034B9847204610BDEE
:104C800031450800B84507204945080070B504467D
:104C9000072934BF0D4607251F4B98471F4B1B683C
:104CA0009C4203D022462CB9224600E000221B4B36
:104CB0001C68FFE7E36AAB422AD003D2161C18BF78
:104CC000012603E0D2F1010638BF0026E562C5F1F6
:104CD0000805A56103EB8303114A02EB83036269B4
:104CE0009A4212D1251D28460E4B9847E36A0E4A78
:104CF0001268934284BF0C4A136003EB8303084895
:104D000000EB83002946094B98470EB1084B9847A2
:104D1000084B984770BD00BF31450800B8450720D3
:104D2000D044072071440800C444072019440800F7
:104D3000214508004945080010B584B000230093C0
:104D40000193029303930B480B494FF480720B4C71
:104D5000A04701280BD14FF0500080F311880122A9
:104D6000074B1A600022074B1A60074B984704B0A4
:104D700010BD00BF0550080004100B00054A0800D4
:104D8000A8450720CC440720E1440800024B1A68DC
:104D900001321A60704700BFF845072010B5044B78
:104DA0009847044B1C68044B9847204610BD00BF31
:104DB00031450800CC440720494508002DE9F04161
:104DC000364B1B68002B63D1354B1A6801321A60D1
:104DD0001B68C3B9334B1968334A106818601160F7
:104DE000324A1168013111601B681B6823B94FF00A
:104DF000FF322F4B1A6006E02A4B1B68DB68DB682A
:104E00005A682B4B1A60264B1A68294B1B689A422A
:104E100042D3244B1B681B684BB1224B1B68DB68D9
:104E2000DC6863681E4A1268934213D90EE04FF0A3
:104E3000FF321F4B1A60BDE8F0811A4B1B68DB681C
:104E4000DC686368164A1268934207D9184A1360EF
:104E5000BDE8F081174E184FDFF86880251D284601
:104E6000B047A36A13B104F11800B047E36A3A6887
:104E7000934288BF3B6003EB830008EB8000294628
:104E80000E4B9847074B1B681B68002BD5D1CEE70C
:104E90000B4B1A6801321A60BDE8F081F845072013
:104EA000CC4407208C450720704507200446072086
:104EB000B402072071440800C444072019440800C4
:104EC000FC450720D04407202DE9F8432D4B984797
:104ED0002D4B1A68013A1A601B68002B48D12B4BE6
:104EE0001B68002B46D00027294EDFF8C880DFF86A
:104EF000C8901DE0F368DC6804F11800C047251D68
:104F00002846C047E36AD9F80020934288BFC9F811
:104F1000003003EB83031F4800EB830029461E4B40
:104F200098471E4B1B68E26ADB6A9A4228BF01273A
:104F30003368002BDED11A4B1B6863B1184B1B681A
:104F40007BB1184D164CA8472368013B23602368AA
:104F5000002BF8D105E0012F03D0134B1B68012B68
:104F60000AD10022104B1A60104B9847012404E02C
:104F7000002402E0002400E000240D4B9847204666
:104F8000BDE8F88331450800F84507209045072023
:104F900094450720D044072019440800B84507204D
:104FA000FC450720BD4D0800AC4507202145080001
:104FB0004945080071440800C444072010B5044660
:104FC00078B1094B9847094B1B681C44084B18687B
:104FD0000430084B98472046074B9847074B9847A3
:104FE00008B9074B984710BD8D4D0800CC440720E9
:104FF000B845072071440800AD490800C94E0800B3
:105000002145080080B5144CDFF87080134E144F12
:105010002368CBB1C0473568B847ADB1114B98474D
:10502000F368DD68281D104B9847104B1A68013A49
:105030001A602368013B23600D4B9847286BDFF80B
:105040004090C8472846C8470A4B1B68012BDFD948
:10505000094B9847DCE700BFC84407207445072088
:10506000C94E0800314508007144080090450720EA
:1050700049450800D0440720214508008D4D08000F
:10508000E94508002B4B1B6843B92B4B1B6803EB0E
:1050900083039B00294AD35823B10FE00122284BF8
:1050A0001A607047244B25491A68013A1A601A6839
:1050B00002EB820251F82220002AF5D01E4B1B6819
:1050C00003EB83031D4A02EB83035A6852685A605C
:1050D00003F108018A4204BF52685A605B68DA68CB
:1050E000184B1A60184B1B681BB3164B1B689A6C45
:1050F000164B1B689A421CD0154B1B680833154A87
:1051000012689A4212D90F4B1B689A6C0F4B1A60A7
:105110000F4B18681049096801601968043119605B
:1051200019680A601A6804321A6070470022064B38
:105130001A607047F8450720C4440720D044072070
:10514000AC450720B845072088450720B002072056
:10515000B445072000460720CC44072038B50D464B
:105160000B4C216818310B4B9847206804300A4BD0
:105170009847B5F1FF3F05D1216808480431084B35
:10518000984738BD074B18682844074B984738BDE7
:10519000B84507203544080071440800BC45072085
:1051A00019440800CC440720AD49080038B5C3684D
:1051B000DC6804F118052846124B9847124B1B680F
:1051C0009BB9251D28460F4B9847E36A0F4A126882
:1051D000934284BF0D4A136003EB83030C4800EB3A
:1051E000830029460B4B984703E00B482946094B9F
:1051F00098470A4B1B68E06ADB6A984234BF00207C
:10520000012038BD71440800F8450720C444072038
:10521000D04407201944080094450720B8450720CA
:10522000034B1B680360034B1B684360704700BF60
:1052300004460720CC44072038B504460D46144BDD
:1052400098472B68B3F1FF3F19D0124A11682268C2
:105250008A4204D0104A116862688A4211D90E4A03
:1052600011686268891A8B420DD90B490968521A74
:1052700013442B602046094B9847002404E0002487
:1052800002E0012400E00124054B9847204638BD88
:105290003145080004460720CC440720215208006D
:1052A000494508000122014B1A607047AC450720B0
:1052B00030B587B0044600B9FEE70B4B0093019070
:1052C0008DF80C106846094B98470546084B9847DF
:1052D00094F9083013F1090FA8BF2572054B9847C0
:1052E000284607B030BD00BF45620800356408009D
:1052F0004DC708005DC7080070B588B0044600239C
:1053000007930D4601B9FEE700230B6000B9FEE7E5
:1053100000F110063046254B984700B9FEE7207A89
:1053200043B213F1090F3EDB304607A90022204BA0
:1053300098472378102B29D1237F13F0080F01D031
:10534000079B0BBB1B4B01930294079B13B11B895B
:10535000049301E00123049301A8174B9847079B8E
:1053600093B9A36A1BB12046012100229847134B31
:10537000984794F9083013F1090FA4BFF42323725E
:105380000F4B9847F4200EE01A8904E0079B03B9FD
:10539000FEE71B681A89A36A13B1204601219847CA
:1053A000079B2B60002040B208B070BDE1C608002A
:1053B00039C608008D610800356408004DC7080033
:1053C0005DC7080070B586B00D4611461A4B984768
:1053D000044600282BD0194B00938DF80C500190F7
:1053E0006846174B984718B3636803B1FEE704F1AA
:1053F0000C063046134B984700B9FEE704F1100540
:105400002846114B984700B9FEE704F114000E4BF3
:10541000984700B1FEE730460C4B984728460C4BA6
:105420009847082021460B4B9847002001E000E0F8
:10543000204606B070BD00BF495D0800955C0800BD
:10544000356408006DC50800E1C60800C5C4080041
:10545000C1C50800617D080010B586B0044640B1A2
:10546000054B009301906846044B98472046044B37
:105470009847002006B010BD855F0800356408001D
:10548000D55D080030B587B0044600B9FEE70B4B88
:10549000009301900391ADF810206846084B98479F
:1054A0000546084B984794F9083013F1090FA8BF37
:1054B0002572054B9847284607B030BD516008005B
:1054C000356408004DC708005DC7080030B587B0D7
:1054D000044600B9FEE70A4B009301906846094B69
:1054E00098470546084B984794F9083013F1090F7F
:1054F000A8BF2572054B9847284607B030BD00BFAE
:10550000BD600800356408004DC708005DC708008D
:1055100070B582B004460D4601B9FEE700230B606A
:1055200000B9FEE700F114063046144B984700B965
:10553000FEE7207A43B213F1090F1BDB304601A9C5
:1055400000220F4B9847A36A1BB12046012100227D
:105550009847019B63B90B4B984794F9083013F1B6
:10556000090FA4BFF6232372074B9847F62001E0EA
:105570002B60002040B202B070BD00BFE1C6080041
:1055800039C608004DC708005DC7080070B582B075
:1055900004460E4601B9FEE700230B6000B9FEE7A2
:1055A00010301C4B984700B9FEE72378102B2AD106
:1055B000002301930720184B9847054660B9174B05
:1055C000984794F9083013F1090FA4BFFF23237201
:1055D000134B9847FF201AE0204601A9114B98472A
:1055E000044628B1072029460F4B984720460EE075
:1055F000019B03B9FEE72B60019B6B600020A88133
:10560000A860356003E020463146064B984740B21B
:1056100002B070BDE1C60800E17C08004DC708007B
:105620005DC70800F9520800617D080030B587B0F9
:10563000044600B9FEE70078102800D0FEE7B2B1BA
:105640000D480090019403918DF81430049268463F
:105650000A4B984705460A4B984794F9083013F1CE
:10566000090FA8BF2572074B9847284600E0002085
:1056700040B207B030BD00BFD561080035640800F6
:105680004DC708005DC7080008B50321014B9847C6
:1056900008BD00BFB15208002DE9F041054616468D
:1056A000984601B9FEE700B9FEE743688B4200D097
:1056B000FEE700F110073846184B984720B93046EE
:1056C000174B9847BDE8F0810720164B98470446D2
:1056D00020B93046124B9847BDE8F081066046601D
:1056E000B8F1000F02D0D8F8003000E00023A3602A
:1056F000BDF81830A3813689384621460A4B9847B1
:1057000020B12046094B9847BDE8F081AB6A1BB138
:105710002846002132469847BDE8F081E1C60800DE
:1057200045800800E17C08000DC60800C162080041
:105730002DE9F04188461646044600283AD000F18B
:10574000100528461D4B9847002833D00320318987
:1057500000221B4B9847074600282BD03146194B97
:10576000984700B33846184B984723E03846164B05
:1057700098471FE037607760144B1B68B36098F858
:105780001030B3813F8928463146114B984718B1F4
:105790003046104B98470DE0A36A5BB120460021CC
:1057A0003A46984706E007200B4B984706460028E4
:1057B000E0D1DBE70020BDE8F08100BFE1C60800D2
:1057C000D180080039830800458008005C5B072011
:1057D0000DC60800C1620800E17C080010B5014652
:1057E00044682046094B984720460949094B984789
:1057F00020460949094B9847204609490422094B8C
:10580000984720460849094B984710BD3D89080034
:10581000FD5B080041890800A15B08004989080078
:10582000455B08005D89080031580800518908006F
:10583000F8B50D46044600B9FEE700274760244B43
:1058400098472572234B984766786770A36A7BB1A7
:10585000204604213A469847A36A4BB12046394670
:105860003A469847A36A1BB1204602213A46984718
:1058700004F110073846184B984718B138460021F4
:10588000164B984704F114073846134B984718B144
:1058900038460021114B9847012E03D0F31EDBB28E
:1058A000012B11D8237F23F00402227713F0040F79
:1058B0000DD1636A03B9FEE71D710023636204F131
:1058C0000C00074B9847F8BD636A03B1FEE7F8BDCB
:1058D0004DC708005DC70800E1C608000DC60800F6
:1058E000E9C408002DE9F0410446037F13F0020FDC
:1058F00003BF436A1D7CC5F380050125416A0B7C0B
:1059000000B9FEE74278012A00D0FEE701B9FEE7C0
:10591000406800B9FEE7276ACA68974200D3FEE7ED
:1059200089683944D61BB6F5803F26BF43F0020391
:105930004FF6FF76B6B2B0F86EE0764584BF43F01E
:105940000203764605F0FF0825B1B2428CBFFF2561
:10595000002555B93744BA4200D2FEE732462A4DF7
:10596000A8470546B8F1000F10D06BB2B3F1FF3F66
:105970000CD1237F43F010032377A36A002B3AD086
:105980002046032132469847F9252AE06B1CDBB2FA
:10599000012B10D86368B3F86E1040F23342914285
:1059A00003D9B3F87030032B05D9A36A1BB1204685
:1059B00003213246984765B9236A1E442662636A0A
:1059C000DB689E4219D10023236260680F4B984721
:1059D00007E06BB2B3F1FF3F03D160680B4B984710
:1059E0000EE0636A1D7100236362637004F10C00B2
:1059F000074B984704E0F925F3E76068034B9847A5
:105A00000020BDE8F08100BF85AA080091B0080021
:105A1000E9C40800F8B5044600B9FEE70378102B86
:105A200000D0FEE74378042B00D0FEE7406800B9C1
:105A3000FEE7636A03B9FEE71D7A05F0010705F08A
:105A40000206F6B2032D14BF0025012515B1002171
:105A5000304B98476068037C012B03D100212E4B0B
:105A6000984716E037B100212C4B98476068002119
:105A7000294B98471EB160680021294B984745B1D2
:105A8000606800210422274B984760680021264B5C
:105A900098471DB16068254B984704E06068394617
:105AA0003246234B9847F8B9626A00231371636248
:105AB000637063602DB1A36A1BB1204604210022EC
:105AC00098472FB1A36A1BB1204600210A46984788
:105AD0002EB1A36A1BB1204602210022984704F18F
